:1000000086C00000A3C00000A1C000009FC0000087
:100010009DC000000C94240C0C94500C97C0000060
:1000200095C0000093C0000091C000008FC0000088
:100030000C94230B8BC0000089C0000087C0000017
:100040000C94CE0A83C0000081C000007FC0000075
:100050007DC000007BC0000079C0000077C00000B8
:1000600075C0000073C000000C94540B6FC00000FA
:100070006DC000006BC0000069C0000067C00000D8
:1000800065C0000063C0000061C000000763423625
:10009000B79BD8A71A39685618AEBAAB558C1D3C19
:1000A000B7CC5763BD6DEDFD753EF6177231BF00DD
:1000B0000000803F08000000BE922449123EABAA17
:1000C000AA2ABECDCCCC4C3E00000080BEABAAAA72
:1000D000AA3E00000000BF000000803F00000000BA
:1000E00000084178D3BB4387D1133D190E3CC3BDF3
:1000F0004282AD2B3E68EC8276BED98FE1A93E4CA0
:1001000080EFFFBE01C4FF7F3F000000000011240C
:100110001FBECFEFD0E1DEBFCDBF1EE0A0E0B1E05B
:10012000EAE4F1E200E00BBF02C007900D92AA31B1
:10013000B107D9F72EE0AAE1BEE001C01D92A53EAD
:10014000B207E1F70E94280A0C94A31059CF8AB78E
:1001500081608ABF89B7806189BF789408958AB722
:1001600084608ABF89B7806289BF7894089590932C
:10017000900089B98AB188618AB95298E5E9F0E0BE
:1001800080818660808380818860808308958CB9B7
:100190005D9BFECF08955F9BFECF8CB10895CF93FA
:1001A000DF93EC018881882329F02196F0DF899183
:1001B0008111FCCFDF91CF9108950F931F93CF93BF
:1001C000DF9301ED1EE0C0E0D0E004C02196F8010D
:1001D00081938F01E0DF8D30C9F7CF52D14F188264
:1001E00081ED9EE0DF91CF911F910F9108951092C4
:1001F000930E1092920E12BE83B7866083BF7894DE
:1002000008951DBC1CBC8FB58FBD8EB588608EBD9A
:100210008EB584608EBD81E19AE79BBD8ABD87B7AC
:10022000806187BF789408951092890010928800A9
:10023000EBE8F0E080818083EAE8F0E0808188608C
:10024000808380818460808381E19AE79093870036
:1002500080938600EDE7F0E080818F7E8083789444
:1002600008958091260E9091270ECB9768F01092FA
:10027000270E1092260E8091240E9091250E019645
:100280009093250E8093240E8091240E9091250E3C
:10029000CB9768F01092250E1092240E8091220EBA
:1002A0009091230E01969093230E8093220E089531
:1002B00087B7816087BFD998089587B78E7F87BF3A
:1002C0001092930E1092920ED8980895CF93DF93C8
:1002D000EC018DE05CDF8AE05ADFCE0160DFDF9168
:1002E000CF910895CF93DF93EC018DE050DF8AE04A
:1002F0004EDF82E091E053DFCE0151DFDF91CF91FD
:100300000895CF93DF93EC018DE041DF8AE03FDF7A
:100310008AE091E044DFCE0142DFDF91CF91089582
:100320004AE064E87EE00E94421084E89EE008957E
:100330009B01215031091216130684F4FC01E60FCB
:10034000F71FDC0180E090E04C9152915D93408377
:1003500001962150310982179307B4F30895CF9283
:10036000DF92EF92FF920F931F93CF93DF936B0176
:100370008A01009799F0EB01E0E0F0E00F2EFAE03F
:10038000EF2EF12CF02D3196B7010E94FE0F805D0B
:100390008993862F972F0097B1F702C0E0E0F0E035
:1003A000E017F1075CF4EC0DFD1D9601200F311FE5
:1003B00080E38193E217F307E1F701C08F01B801F1
:1003C000C601B6DFE601C00FD11F1882C801DF9158
:1003D000CF911F910F91FF90EF90DF90CF900895F4
:1003E0004F925F926F927F928F929F92AF92BF9245
:1003F000CF92DF92EF92FF920F931F93CF93DF93F1
:100400004B015C01EA010E944F0D6B017C0141E050
:1004100050E064EA7EE0C601A2DF8C01209779F10A
:10042000FC01EC55F14F8EE28083BE010D2E000CD5
:10043000880B990B0E94820D9B01AC0160E070E07B
:1004400080E291E40E94990E2B013C01B601DD0C83
:10045000880B990B0E94820D9B01AC01C501B40170
:100460000E947E0C0B55114FA30192010E94360E83
:100470000E944F0DDC01CB01AE01B80170DF84EAB0
:100480009EE0DF91CF911F910F91FF90EF90DF9051
:10049000CF90BF90AF909F908F907F906F905F9024
:1004A0004F900895282F30E0205331092A3031052C
:1004B00010F4C90108958FEF9FEF0895DF92EF9236
:1004C000FF920F931F93CF93DF93CDB7DEB7BC019D
:1004D0000DB71EB7FC0101900020E9F73197E81B2A
:1004E000F90B8DB79EB78E1B9F0B0FB6F8949EBF6E
:1004F0000FBE8DBF01967B01DC0140E050E00EC0D5
:10050000F701D1907F012D2D30E0205331092A30A1
:10051000310508F4DC924F5F5F4F1196FB010190AB
:100520000020E9F73197E61BF70B4E175F0740F302
:100530000E9425109093CA0E8093C90E0FB6F894AE
:100540001EBF0FBE0DBFDF91CF911F910F91FF9086
:10055000EF90DF900895B89AC09A2FEB87E299E068
:10056000215080409040E1F700C00000C0980895FD
:10057000BC01990F880B990B0E94820D20E030E09E
:1005800048EC52E40E94E70C20E030E84BE355E4ED
:100590000E94360E0E944F0DCB010895EF92FF92FC
:1005A0000F931F93CF93DF937C018B01EA01E0DF70
:1005B000998388838881998108171907C4F484E195
:1005C00091E090DE89E391E081DEF7DD90939F0E6C
:1005D00080939E0E73DF7C019093490E8093480EAA
:1005E000C7DFEC0188819981081719071CF38091F6
:1005F0000001909101018E199F0990930101809350
:10060000000187E691E0CBDD80910001909101012E
:1006100087DEC5DD82E991E0C2DDDF91CF911F91D8
:100620000F91FF90EF90089584E991E04FDE80E014
:1006300090E0009781F485EC91E048DEBEDD909378
:10064000550E8093540E3ADF90935B0E80935A0EB2
:1006500081E090E0EECF8130910581F480EF91E070
:1006600035DEABDD9093530E8093520E27DF9093CF
:10067000A30E8093A20E82E090E0DBCF8230910542
:1006800081F48BE192E022DE98DD9093970E8093C7
:10069000960E14DF9093510E8093500E83E090E0FD
:1006A000C8CF8330910581F485E492E00FDE85DDCB
:1006B00090939D0E80939C0E01DF9093CC0E8093BF
:1006C000CB0E84E090E0B5CF8430910571F483E7E0
:1006D00092E0FCDD72DD9093BD0E8093BC0EEEDEE9
:1006E0009093910E8093900E05C0019685309105F0
:1006F0000CF49FCF8091900E9091910E9093C60E26
:100700008093C50E8091500E9091510E9093A10E42
:100710008093A00E80915A0E90915B0E90939B0E49
:1007200080939A0E8091A20E9091A30E9093C00E8A
:100730008093BF0E8091CB0E9091CC0E90938F0E34
:1007400080938E0E08950F931F93CF93DF938DE9BF
:1007500092E0BCDD00E010E08DE019DD8AE017DDFD
:100760008BEC92E0B3DD85EE92E0B0DD8FEF92E0AE
:10077000ADDD8CE193E0AADD85E393E0A7DD8EE4B7
:1007800093E0A4DD85E793E0A1DD05DD2FE33DE007
:1007900093E0215030409040E1F700C0000082DE3D
:1007A000EC01043011050CF0B5C18330910509F45A
:1007B000B4C03CF48130910561F0029709F45BC04C
:1007C000A2C18430910509F4FAC0059709F449C122
:1007D0009AC18091440E9091450E892B09F044C036
:1007E00084EA93E073DDE9DC9093D00E8093CF0E22
:1007F00065DEEC019093450E8093440E853691059D
:1008000020F088EC93E06EDD0DC0B2DE9093390EDF
:100810008093380E60915A0E70915B0E48E35EE053
:10082000CE01BCDE8091440E9091450E8536910537
:10083000B8F68091380E9091390E20915A0E309171
:100840005B0E281B390B30939B0E20939A0E209140
:100850004E0E30914F0E820F931F90934F0E809348
:100860004E0E0F5F1F4F78CF81EF93E04ADD8CE192
:1008700094E02CDD71CF8091460E9091470E892B2C
:1008800009F044C08AE394E021DD97DC9093990E4F
:100890008093980E13DEEC019093470E8093460EE2
:1008A0008536910520F088EC93E01CDD0DC060DEFC
:1008B00090933B0E80933A0E6091A20E7091A30E1E
:1008C0004AE35EE0CE016ADE8091460E9091470ECB
:1008D00085369105B8F680913A0E90913B0E2091A5
:1008E000A20E3091A30E281B390B3093C00E20931B
:1008F000BF0E20914E0E30914F0E820F931F90939A
:100900004F0E80934E0E0F5F1F4F26CF81EF93E067
:10091000F8DC8EE594E0DADC1FCF8091420E9091F6
:10092000430E892B09F044C08CE794E0CFDC45DC12
:100930009093C80E8093C70EC1DDEC019093430ED7
:100940008093420E8536910520F088EC93E0CADC56
:100950000DC00EDE9093370E8093360E6091CB0E55
:100960007091CC0E46E35EE0CE0118DE8091420E1F
:100970009091430E85369105B8F68091360E909190
:10098000370E2091CB0E3091CC0E281B390B3093B3
:100990008F0E20938E0E20914E0E30914F0E820FAF
:1009A000931F90934F0E80934E0E0F5F1F4FD4CE28
:1009B00081EF93E0A6DC83EA94E088DCCDCE8091E1
:1009C000400E9091410E892B09F044C084EC94E0D4
:1009D0007DDCF3DB9093950E8093940E6FDDEC013C
:1009E0009093410E8093400E8536910520F088EC5F
:1009F00093E078DC0DC0BCDD9093350E8093340E0F
:100A00006091900E7091910E44E35EE0CE01C6DDE0
:100A10008091400E9091410E85369105B8F68091F7
:100A2000340E9091350E2091900E3091910E281B2E
:100A3000390B3093C60E2093C50E20914E0E309187
:100A40004F0E820F931F90934F0E80934E0E0F5FA9
:100A50001F4F82CE81EF93E054DC87EA94E036DCCE
:100A60007BCE80913E0E90913F0E892B09F044C0C1
:100A700087EE94E02BDCA1DB9093CE0E8093CD0E1D
:100A80001DDDEC0190933F0E80933E0E853691055F
:100A900020F088EC93E026DC0DC06ADD90933D0EDB
:100AA00080933C0E6091500E7091510E4CE35EE0CD
:100AB000CE0174DD80913E0E90913F0E85369105FA
:100AC000B8F680913C0E90913D0E2091500E3091E1
:100AD000510E281B390B3093A10E2093A00E2091AC
:100AE0004E0E30914F0E820F931F90934F0E8093B6
:100AF0004E0E0F5F1F4F30CE81EF93E002DC8AE095
:100B000095E0E4DB29CE87E295E0ECDBCD2B09F024
:100B100023CE0AC089E495E0F4DB80E795E0D6DBDC
:100B20008DE035DB8AE033DBDF91CF911F910F91B0
:100B300008950F931F93CF93DF93EC0104E610E029
:100B400088819981883B9B4081F18AE995E0CADBE5
:100B50008FEB95E0BBDB82EF95E0D3DB89E196E09C
:100B6000B5DB8DE014DB8AE012DB1092410E1092AF
:100B7000400E10923F0E10923E0E1092450E1092B3
:100B8000440E1092470E1092460E1092430E109291
:100B9000420E109301010093000119821882D3DDE7
:100BA00088819981883B9B4059F680E090E0A6E1DE
:100BB000B3E480934A0E90934B0EA0934C0EB093E7
:100BC0004D0E80E09CE7A2E1B8E48093C10E9093C3
:100BD000C20EA093C30EB093C40E8EE496E076DBF3
:100BE00083E896E073DB89EA96E070DB8DE0CFDA8C
:100BF0008AE0CDDA8DE0CBDA8AE0C9DADF91CF91F5
:100C00001F910F9108958FEC96E060DB8FEF96E0D7
:100C10005DDB82E197E05ADB8DE0B9DA8AE0B7DA92
:100C200085E297E053DBB7DA813319F0823359F06C
:100C300014C084EF91E09093BB0E8093BA0E81E4D0
:100C400097E044CB08958CE291E09093BB0E8093A3
:100C5000BA0E82E697E03ACB089583E897E042DB4C
:100C6000D5CF8F929F92AF92BF92CF92DF92EF92A9
:100C7000FF920F931F93CF93DF936B017C018DE065
:100C800086DA8AE084DA89E997E020DB80EC97E075
:100C90001DDB93DA8C0112DCEC019093B90E80938A
:100CA000B80E6091BA0E7091BB0E80E090E028D72C
:100CB0004B015C01BE0180E090E022D79B01AC01BA
:100CC000C501B401D3D76093300E7093310E809379
:100CD000320E9093330E8DE05ADA8AE058DAC8016A
:100CE0005EDA80EE97E05BDA8091BA0E9091BB0EEF
:100CF00017DB55DA8DEE97E052DA20E030E04AE774
:100D000054E46091300E7091310E8091320E9091CA
:100D1000330E5DD641E050E063DBD8DA88EF97E030
:100D20003EDA8090300E9090310EA090320EB0904E
:100D3000330EA7019601C501B40145D618160CF46F
:100D400047C08092560E9092570EA092580EB092C5
:100D5000590EA5019401C701B601D0D560932A0EA2
:100D600070932B0E80932C0E90932D0E8091B80EC5
:100D70009091B90E90932F0E80932E0E8DE007DA8E
:100D80008AE005DA8BE098E00ADA20E030E04AE712
:100D900054E460912A0E70912B0E80912C0E90914C
:100DA0002D0E15D641E050E01BDBF9D984E398E025
:100DB000F6D98DE0ECD98AE0EAD98DE398E086DABD
:100DC0008CE698E083DA8DE0E2D98AE0E0D952C07F
:100DD000A7019601C501B40145D718160CF04AC009
:100DE0008CE998E08EDA8DE0D2D98AE0D0D9C09231
:100DF000560ED092570EE092580EF092590E609116
:100E0000BA0E7091BB0E80E090E07AD69B01AC01E7
:100E1000C701B601DCD548D670932F0E60932E0E15
:100E20008AEB98E0BCD980912E0E90912F0E78DA43
:100E30004DDA80EE97E0B3D98091BA0E9091BB0E57
:100E40006FDAADD98BEE98E0AAD980EF98E03EDA60
:100E50008DE09DD98AE09BD98DE099D98AE097D918
:100E60008DE398E033DA86E099E030DA8DE08FD9CF
:100E70008AE08DD9DF91CF911F910F91FF90EF9074
:100E8000DF90CF90BF90AF909F908F90089580910A
:100E9000220E9091230EECE5FEE0918380838091F9
:100EA000240E9091250E938382838091260E90913B
:100EB000270E9583848380911C0E90911D0E97833D
:100EC000868380911E0E90911F0E9187808780915E
:100ED000200E9091210E9387828785B3848780911D
:100EE000620085878BB3868781B187878091C50E25
:100EF0009091C60E918B808B8091BF0E9091C00E09
:100F0000978B868B80919A0E90919B0E958B848BFC
:100F100080918E0E90918F0E918F808F8091A00E78
:100F20009091A10E938B828B80912E0E90912F0E1B
:100F3000938F828F8091280E9091290E958F848FA8
:100F40008091BA0E9091BB0E978F868F8091C10EC3
:100F50009091C20EA091C30EB091C40E80A391A334
:100F6000A2A3B3A380911A0E90911B0E95A384A304
:100F70008091920E9091930E97A386A348E250E041
:100F800060E070E0CF010C948D10089548E250E0CD
:100F900060E070E08CE59EE00E947D10ECE5FEE0F4
:100FA0008681978190931D0E80931C0E808591857C
:100FB00090931F0E80931E0E828593859093210E31
:100FC0008093200E848585BB85858093620087850C
:100FD00081B9808991899093C60E8093C50E8289CC
:100FE00093899093A10E8093A00E84899589909304
:100FF0009B0E80939A0E808D918D90938F0E80938F
:101000008E0E868997899093C00E8093BF0E828D35
:10101000938D90932F0E80932E0E868D978D9093A7
:10102000BB0E8093BA0E848D958D9093290E80937C
:10103000280E80A191A1A2A1B3A18093C10E90938B
:10104000C20EA093C30EB093C40E86A197A1909335
:10105000930E8093920E089586E399E037D987E442
:1010600099E034D989E699E031D98DE090D88AE0C9
:101070008ED88EE899E02AD98ED8813321F0823338
:1010800009F455C060C082DF6091C10E7091C20E3C
:101090008091C30E9091C40E20E030E0A901E2D50A
:1010A00018169CF58BEA99E011D96091C10E7091E8
:1010B000C20E8091C30E9091C40E20E030E04AE74A
:1010C00054E485D441E050E08BD969D887EB99E0AE
:1010D00066D880912E0E90912F0E892B79F489EC91
:1010E00099E0F4D888EE99E0F1D86091C10E709142
:1010F000C20E8091C30E9091C40EB3DD84E09AE0DD
:10110000E5D889E29AE0E2C8089585E59AE0F9D841
:1011100082E79AE0DBD888DA16DB8EE49EE009DD10
:1011200072DD60E07CE782E198E49BCD08957CDA93
:101130000ADB8EE49EE0FDDC66DD60E07CE782E1B8
:1011400098E48FCD089583E89AE0CCD885CF89EADA
:101150009AE0BCD88091BA0E9091BB0EE1D81FD80E
:1011600089E69BE01CD881ED9AE0B0D88FEF96E03D
:10117000ADD882E197E0AAD88DE009D88AE007D8F7
:1011800083E09BE0A3D807D8813319F0823359F06C
:1011900014C084EF91E09093BB0E8093BA0E83E26B
:1011A0009BE094C808958CE291E09093BB0E8093ED
:1011B000BA0E88E49BE08AC8089583E897E092D845
:1011C000D2CF8DE00E94C7008AE00E94C7008DE662
:1011D0009BE07CD88091220E9091230EA1D80E9492
:1011E000CF0089E89BE00E94CF008091240E90916F
:1011F000250E96D80E94CF0089E89BE00E94CF0080
:101200008091260E9091270E8BD80E94CF008BE8FC
:101210009BE00E94CF008DE00E94C7008AE00C9402
:10122000C70008958DE00E94C7008AE00E94C700B1
:1012300084E99BE04BD880911C0E90911D0E70D8D4
:101240000E94CF0089E89BE00E94CF0080911E0E93
:1012500090911F0E65D80E94CF0089E89BE00E9404
:10126000CF008091200E9091210E5AD80E94CF007D
:101270008BE89BE00E94CF008DE00E94C7008AE0CF
:101280000C94C70008958DE00E94C7008AE00E9478
:10129000C70080EB9BE01AD88AEC9BE017D88091BE
:1012A0009A0E90919B0E3CD80E94CF0082EE9BE05C
:1012B0000DD88091BF0E9091C00E32D80E94CF0001
:1012C0008AEF9BE003D88091C50E9091C60E28D876
:1012D0000E94CF0081E19CE00E9466018091A00EF7
:1012E0009091A10E1DD80E94CF0088E29CE00E9440
:1012F000660180918E0E90918F0E12D80E94CF00C1
:101300008DE00E94C7008AE00C94C70008958DE02C
:101310000E94C7008AE00E94C70082E49CE00E940D
:1013200066016091C10E7091C20E8091C30E9091C2
:10133000C40E20E030E04AE754E449D341E050E0F5
:101340004FD80E94CF008AE59CE00E94CF008DE03C
:101350000E94C7008AE00C94C70008958DE00E94A7
:10136000C7008AE00E94C70089E69CE00E946601EF
:101370008091280E9091290E0E9490010E94CF002A
:1013800081E89CE00E94CF008DE00E94C7008AE0C7
:101390000C94C7000895CF93DF931F92CDB7DEB7AB
:1013A0008DE00E94C7008AE00E94C7008CE89CE0A4
:1013B0000E9466018DE00E94C7008AE00E94C7007B
:1013C0008CEB9CE00E94660184EE9CE00E9466012A
:1013D00083E19DE00E9466018DE39DE00E9466012D
:1013E00089E59DE00E9466018DE79DE00E9466010F
:1013F00081EA9DE00E9466010E94CB008983898179
:10140000833381F028F4813349F0823349F012C0EC
:10141000853361F048F0863359F00CC034DF14C0D6
:101420009DDF12C074DF10C092DE0EC0CADE0CC099
:10143000F9DE0AC08DE00E94C7008AE00E94C70062
:101440008DEB9DE00E9472010F90DF91CF91089586
:101450000E94F7000E9401010E9414010E94A7004F
:101460000E94AF0083E390E00E94B7008AB38760D8
:101470008ABB81B1806381B9DA9A8FEF84BB809394
:1014800061008DEC9DE00E94CF002FEB87E299E098
:10149000215080409040E1F700C000008DEE9DE0BB
:1014A0000E9466018DE00E94C7008AE00E94C7008A
:1014B000D3DD71DFFECFEDE7F0E0808180618083D6
:1014C00008950E945D010D9902C0F5DFD99A089533
:1014D000EDE7F0E080818F7E808308950C9904C051
:1014E0000E945801F5DFD998089581E085BB2FEE61
:1014F00089E492E0215080409040E1F700C0000074
:1015000083E085BB2FEE89E492E02150804090403B
:10151000E1F700C0000082E085BB2FEE89E492E095
:10152000215080409040E1F700C0000086E085BB7C
:101530002FEE89E492E0215080409040E1F700C016
:10154000000084E085BB2FEE89E492E021508040CA
:101550009040E1F700C000008CE085BB2FEE89E4ED
:1015600092E0215080409040E1F700C0000088E008
:1015700085BB2FEE89E492E0215080409040E1F756
:1015800000C0000089E085BB2FEE89E492E0215085
:1015900080409040E1F700C0000008951F920F9234
:1015A0000FB60F9211248F939F938091920E90917A
:1015B000930E01969093930E8093920E8091920ECB
:1015C0009091930E8A379105B8F11092930E109274
:1015D000920E8091200E9091210E01969093210EF3
:1015E0008093200E8091200E9091210ECB9768F071
:1015F0001092210E1092200E80911E0E90911F0EBF
:10160000019690931F0E80931E0E80911E0E909156
:101610001F0ECB9768F010921F0E10921E0E809135
:101620001C0E90911D0E019690931D0E80931C0E22
:101630009BB381E089278BBB9F918F910F900FBE49
:101640000F901F9018951F920F920FB60F921124B2
:101650000BB60F922F933F934F935F936F937F93AC
:101660008F939F93AF93BF93EF93FF938091260E39
:101670009091270E01969093270E8093260E0E943C
:101680003101FF91EF91BF91AF919F918F917F9128
:101690006F915F914F913F912F910F900BBE0F90E3
:1016A0000FBE0F901F9018951F920F920FB60F92BA
:1016B00011240BB60F92CF92DF92EF92FF922F93ED
:1016C0003F934F935F936F937F938F939F93AF93CA
:1016D000BF93EF93FF9380911A0E90911B0E01968A
:1016E00090931B0E80931A0E80911A0E90911B0EF0
:1016F000039724F410926200F8DE8FC080911A0ED6
:1017000090911B0E039704F180911A0E90911B0E7D
:101710000597D4F415BA80911A0E90911B0E039779
:1017200031F482E0809362000E94AB0276C0809127
:101730001A0E90911B0E049721F481E080936200B1
:101740006CC01092620069C080911A0E90911B0EBD
:10175000059754F080911A0E90911B0E069724F471
:1017600010926200C2DE59C080911A0E90911B0E39
:1017700006970CF451C08091920E9091930E0797AA
:1017800008F04AC080E18093620015BA80911A0E79
:1017900090911B0E069709F040C080912E0E9091FB
:1017A0002F0E892B29F41092620092DE15BA2FC0F9
:1017B000C090C10ED090C20EE090C30EF090C40E47
:1017C0006091BA0E7091BB0E80E090E099D19B01C0
:1017D000AC01C701B60192D06093C10E7093C20EE6
:1017E0008093C30E9093C40E80912E0E90912F0E75
:1017F000019790932F0E80932E0E8091280E90913A
:10180000290E01969093290E8093280E40DB1092AA
:101810001B0E10921A0E01C015BAFF91EF91BF91E5
:10182000AF919F918F917F916F915F914F913F9178
:101830002F91FF90EF90DF90CF900F900BBE0F9005
:101840000FBE0F901F9018951F920F920FB60F9218
:1018500011240BB60F922F933F934F935F936F9387
:101860007F938F939F93AF93BF93EF93FF930C99C5
:1018700002C034DE02C00C9924DEFF91EF91BF91CB
:10188000AF919F918F917F916F915F914F913F9118
:101890002F910F900BBE0F900FBE0F901F901895B9
:1018A0001F920F920FB60F9211240BB60F922F9327
:1018B0003F934F935F936F937F938F939F93AF93D8
:1018C000BF93EF93FF930D9903C0F5DDD99A03C041
:1018D00015BAFEDDD998FF91EF91BF91AF919F911D
:1018E0008F917F916F915F914F913F912F910F90C9
:1018F0000BBE0F900FBE0F901F9018955058BB272E
:10190000AA270ED075C166D130F06BD120F031F42A
:101910009F3F11F41EF45BC10EF4E095E7FB51C14B
:10192000E92F77D180F3BA17620773078407950709
:1019300018F071F49EF58FC10EF4E0950B2EBA2FBE
:10194000A02D0B01B90190010C01CA01A0011124C5
:10195000FF27591B99F0593F50F4503E68F11A1671
:10196000F040A22F232F342F4427585FF3CF469502
:1019700037952795A795F0405395C9F77EF41F1624
:10198000BA0B620B730B840BBAF09150A1F0FF0FEE
:10199000BB1F661F771F881FC2F70EC0BA0F621FDA
:1019A000731F841F48F4879577956795B795F795CA
:1019B0009E3F08F0B3CF9395880F08F09927EE0F5C
:1019C000979587950895D9D008F481E008950CD0B3
:1019D0000FC107D140F0FED030F021F45F3F19F085
:1019E000F0C0511139C1F3C014D198F39923C9F350
:1019F0005523B1F3951B550BBB27AA276217730715
:101A0000840738F09F5F5F4F220F331F441FAA1FC8
:101A1000A9F333D00E2E3AF0E0E830D09150504088
:101A2000E695001CCAF729D0FE2F27D0660F771F36
:101A3000881FBB1F261737074807AB07B0E809F018
:101A4000BB0B802DBF01FF2793585F4F2AF09E3FAD
:101A5000510568F0B6C000C15F3FECF3983EDCF37F
:101A6000869577956795B795F7959F5FC9F7880F26
:101A7000911D9695879597F90895E1E0660F771F78
:101A8000881FBB1F621773078407BA0720F0621B09
:101A9000730B840BBA0BEE1F88F7E095089504D002
:101AA0006894B111D9C00895BCD088F09F5790F0C8
:101AB000B92F9927B751A0F0D1F0660F771F881F73
:101AC000991F1AF0BA95C9F712C0B13081F0C3D08E
:101AD000B1E00895C0C0672F782F8827B85F39F02C
:101AE000B93FCCF3869577956795B395D9F73EF4D2
:101AF00090958095709561957F4F8F4F9F4F08957A
:101B0000E89409C097FB3EF4909580957095619597
:101B10007F4F8F4F9F4F9923A9F0F92F96E9BB274D
:101B20009395F695879577956795B795F111F8CFC9
:101B3000FAF4BB0F11F460FF1BC06F5F7F4F8F4F34
:101B40009F4F16C0882311F096E911C0772321F02A
:101B50009EE8872F762F05C0662371F096E8862FC2
:101B600070E060E02AF09A95660F771F881FDAF719
:101B7000880F9695879597F90895990F0008550F46
:101B8000AA0BE0E8FEEF16161706E807F907C0F003
:101B900012161306E407F50798F0621B730B840B0B
:101BA000950B39F40A2661F0232B242B252B21F4E5
:101BB00008950A2609F4A140A6958FEF811D811D85
:101BC000089597F99F6780E870E060E008959FEFBF
:101BD00080EC089500240A941616170618060906C4
:101BE000089500240A941216130614060506089593
:101BF000092E0394000C11F4882352F0BB0F40F41B
:101C0000BF2B11F460FF04C06F5F7F4F8F4F9F4F5A
:101C1000089557FD9058440F551F59F05F3F71F0DC
:101C20004795880F97FB991F61F09F3F79F0879543
:101C30000895121613061406551FF2CF4695F1DFCC
:101C400008C0161617061806991FF1CF869571055C
:101C5000610508940895E894BB2766277727CB0190
:101C600097F908958ADF08F48FEF08950BD0C0CF5D
:101C7000B1DF28F0B6DF18F0952309F0A2CFA7CF87
:101C80001124EACFC6DFA0F3959FD1F3950F50E062
:101C9000551F629FF001729FBB27F00DB11D639F1E
:101CA000AA27F00DB11DAA1F649F6627B00DA11DC4
:101CB000661F829F2227B00DA11D621F739FB00D6A
:101CC000A11D621F839FA00D611D221F749F3327DA
:101CD000A00D611D231F849F600D211D822F762F73
:101CE0006A2F11249F5750408AF0E1F088234AF070
:101CF000EE0FFF1FBB1F661F771F881F91505040BC
:101D0000A9F79E3F510570F05CCFA6CF5F3FECF383
:101D1000983EDCF3869577956795B795F795E795A7
:101D20009F5FC1F7FE2B880F911D9695879597F9B8
:101D30000895FA01EE0FFF1F30962105310599F144
:101D40006115710561F48038BFE39B0749F1689420
:101D50009038810561F08038BFEF9B0741F09923EF
:101D600042F5FF3FE1053105210511F1E8940894A2
:101D7000E795D901AA2329F4AB2FBE2FF85FD0F342
:101D800010C0FF5F70F4A695E0F7F73950F019F036
:101D9000FF3A38F49F779F930CD00F9007FC905830
:101DA00008953EF014CF60E070E080E89FE308956E
:101DB0004FE79F775F934F933F932F939ED02F9141
:101DC0003F914F915F9152DF05C019F40EF0F9CEAB
:101DD00042CFFDCE26DFC8F39638C0F707F80F9242
:101DE000E8942BE33AEA48EB5FE74EDF0F920F925D
:101DF0000F924DB75EB70F92C0D0ECE8F0E016D06E
:101E00004F915F91EF91FF91E595EE1FFF1F49F014
:101E1000FE57E0684427EE0F441FFA95E1F741951D
:101E2000550B32D00F9007FE26C00895DF93CF9355
:101E30001F930F93FF92EF92DF927B018C016894C6
:101E400005C0DA2EEF011EDFFE01E894A591259171
:101E5000359145915591AEF3EF0162DDFE01970199
:101E6000A801DA9479F7DF90EF90FF900F911F911E
:101E7000CF91DF9108959B01AC0160E070E080E8B4
:101E80009FE3A5CD9ECEACC0CCDEE8F39923D9F379
:101E9000940F511DBBF39150504094F059F088239A
:101EA00032F0660F771F881F91505040C1F79E3F58
:101EB000510544F7880F911D9695879597F90895D8
:101EC0005F3FACF0983E9CF0BB2786957795679571
:101ED000B79508F4B1609395C1F7BB0F58F711F4AB
:101EE00060FFE8CF6F5F7F4F8F4F9F4FE3CFB4CE40
:101EF0000EF076C06CCE689464CE93DEC8F399235E
:101F0000D1F3C6F3DF93CF931F930F93FF92C92FA3
:101F1000DD2788232AF02197660F771F881FDAF7BD
:101F200020E030E040E85FEB9FE3883920F0803E1E
:101F300030F021968F77E3DCE4EBF0E003C0DFDCE8
:101F4000E1EEF0E073DF8B01BE01EC01FB2E6F5779
:101F500071097595771F880B990BD4DD28E132E75D
:101F600041E35FE38FDEAF2D9801AE01FF900F914B
:101F70001F91CF91DF91D4DC3BCEFA01DC01AA0F97
:101F8000BB1F9B01AC01BF5728F4222733274427EE
:101F900050781FC0B75188F4AB2F00244695379571
:101FA0002795011CA395D2F3002069F0220F331F5F
:101FB000441FB395DAF30DD0A1CC61307105A0E8D0
:101FC0008A07B94630F49B01AC016627772788273A
:101FD0009078309621F02083318342835383089593
:101FE0009F3F31F0915020F4879577956795B7958D
:101FF000880F911D9695879597F9089597FB072E61
:1020000016F4009406D077FD08D00BD007FC05D05D
:102010003EF4909581959F4F0895709561957F4FFF
:102020000895AA1BBB1B51E107C0AA1FBB1FA6171F
:10203000B70710F0A61BB70B881F991F5A95A9F771
:1020400080959095BC01CD010895FC0188279927C2
:10205000E89421912032E9F3293010F02E30C8F3B2
:102060002B3239F02D3231F4689403C015D0820F31
:10207000911D219120532A30C8F31EF4909581952B
:102080009F4F0895BB274A3031F4992322F4BDE2D3
:10209000909581959F4F09C07AE0979F902D879FDB
:1020A000802D910D11240895BB27FB015527AA27E8
:1020B000880F991FAA1FA41710F0A41B83955051D5
:1020C000B9F7A05DAA3308F0A95DA193009779F74D
:1020D000B111B1931192CB0100C0DC01FC01672F5B
:1020E00071917723E1F7329704C07C916D937083EF
:1020F0006291AE17BF07C8F30895DC01CB01FC0164
:10210000E199FECF06C0FFBBEEBBE09A31960DB25F
:102110000D9241505040B8F70895DC01CB0102C048
:102120002D9105D041505040D8F70895262FE199C0
:10213000FECF9FBB8EBB2DBB0FB6F894E29AE19AFF
:0A2140000FBE01960895F894FFCF3A
:10214A0064004552524F523A20005741524E494E6E
:10215A00473A2000706C6561736520656E7465721C
:10216A002061206C6F7765722070657263656E748A
:10217A0061676520746F2020006163636F6D6D6F06
:10218A00646174652074686520617661696C616256
:10219A006C652066727569747320696E2073746F3A
:1021AA0072653A3E3E20005468652072656D616929
:1021BA006E696E672070657263656E74616765200B
:1021CA00746F206D616B6520313030252069733A58
:1021DA002000250020202020202020454E54455252
:1021EA0020544845204E554D424552204F46202006
:1021FA004541434820465255495420415641494C8D
:10220A0041424C450020506C6561736520656E74CF
:10221A006572206E756D626572206F66204D616E03
:10222A00676F657320696E2073746F72653A200058
:10223A0020506C6561736520656E746572206E75D9
:10224A006D626572206F66204F72616E67657320DA
:10225A00696E2073746F72653A200020506C656154
:10226A00736520656E746572206E756D6265722085
:10227A006F662047756176617320696E2073746F8B
:10228A0072653A200020506C6561736520656E7432
:10229A006572206E756D626572206F662050696E78
:1022AA00656170706C657320696E2073746F7265F6
:1022BA003A200020506C6561736520656E74657202
:1022CA00206E756D626572206F66204170706C6554
:1022DA007320696E2073746F72653A200020202083
:1022EA002020202020202020454E544552205448AA
:1022FA00452050455243454E54414745204F4620BC
:10230A00454143482046525549540020312E2070F9
:10231A00657263656E74616765206F66206D616EB4
:10232A00676F65730020322E2070657263656E7464
:10233A00616765206F66206F72616E676573002042
:10234A00332E2070657263656E74616765206F66EF
:10235A002070696E656170706C65730020342E2080
:10236A0070657263656E74616765206F662061705F
:10237A00706C65730020352E2070657263656E740B
:10238A00616765206F66206775617661730020302A
:10239A002E20746F206578697420656E74727920B6
:1023AA006F662066727569742070657263656E74F3
:1023BA0061676573002043686F6F736520612066EB
:1023CA00727569742070657263656E746167652ED3
:1023DA0020456E746572203020746F2073746F709C
:1023EA003E3E2000456E74657220746865207065F3
:1023FA007263656E74616765206F66206D616E67D2
:10240A006F65733A3E3E200070657263656E746153
:10241A00676520656E6473206174203130302C202A
:10242A00706C656173652074727920616761696E89
:10243A0000596F75206861766520616C7265616408
:10244A007920656E746572656420746865207065AC
:10245A007263656E74616765206F66006D616E6791
:10246A006F6573212043686F6F736520616E6F74A7
:10247A0068657220667275697400456E74657220AB
:10248A007468652070657263656E74616765206F34
:10249A0066206F72616E6765733A3E3E20006F7206
:1024AA00616E676573212043686F6F736520616E83
:1024BA006F7468657220667275697400456E74651A
:1024CA0072207468652070657263656E74616765F1
:1024DA00206F662070696E656170706C65733A3E34
:1024EA003E200070696E656170706C6573212043CF
:1024FA00686F6F736520616E6F74686572206672AB
:10250A0075697400456E746572207468652070651B
:10251A007263656E74616765206F66206170706CA6
:10252A0065733A3E3E2000456E7465722074686594
:10253A002070657263656E74616765206F662067D7
:10254A0075617661733A3E3E200067756176617304
:10255A00212043686F6F736520616E6F74686572BE
:10256A00206672756974007069636B20616D6F6EA5
:10257A006720746865206F7074696F6E73203020ED
:10258A002D2035206F6E6C7900546865206D69784E
:10259A00747572652073686F756C642068617665FE
:1025AA0020666F757220646966666572656E74006E
:1025BA0066727569747320616E6420796F7520681C
:1025CA0061766520616C726561647920656E7465F7
:1025DA00726564207468656D2E0054686520746F96
:1025EA0074616C206C6974657273202073686F75EE
:1025FA006C6420626520313530206C74722E007054
:10260A006C6561736520656E7465722074686520F7
:10261A0066727569742070657263656E7461676548
:10262A007320636F72726563746C79206167616984
:10263A006E00596F752077696C6C206E6F7420621A
:10264A00652061626C6520746F2070726F636565C6
:10265A006420696620796F750020646F6E27742084
:10266A00656E74657220616C6C2074686520342014
:10267A00646966666572656E7420667275697473DC
:10268A0020706572206D6978747572652E00596FB5
:10269A007520686176652073756363657373667503
:1026AA006C6C79206D6978656420313530206C69ED
:1026BA0074657273206F6620746865206472696E2F
:1026CA006B2E00506C656173652070726F6365656F
:1026DA006420616E6420636F6E6669677572652037
:1026EA007468652073697A65006F6620746865206E
:1026FA00626F74746C6520746F2066696C6C2077E5
:10270A0069746820746865206472696E6B2E004370
:10271A00484F4F5345204120424F54544C45204383
:10272A004150414349545920544F2046494C4C206A
:10273A005749544820544845204452494E4B00209A
:10274A00312E20353030206D6C20626F74746C65C8
:10275A002E0020322E20333030206D6C20626F74B0
:10276A00746C652E0043686F6F7365206120626F19
:10277A0074746C652063617061636974793E3E208C
:10278A0000626F74746C6520636170616369747947
:10279A00206F6620353030206D6C20697320736598
:1027AA007400626F74746C6520636170616369742C
:1027BA0079206F6620333030206D6C206973207366
:1027CA0065740043686F6F73652065697468657224
:1027DA002031206F7220322E00506C6561736520A3
:1027EA00656E74657220746865206E756D626572B7
:1027FA00206F6620626F74746C657320796F750040
:10280A002077616E7420746F2066696C6C2074681E
:10281A0065206A7569636520776974683E3E2000A1
:10282A0020626F74746C6573206F662000206D6C73
:10283A007320676976652000206C747273206F6656
:10284A0020746865206472696E6B0054686520762E
:10285A006F6C756D652077696C6C206265206C659C
:10286A00667420696E207468652074616E6B2069D5
:10287A00733A2000206C69746572732E005377696D
:10288A00746368206F6E20746865202262757474A0
:10289A006F6E20666F72207374617274696E67203E
:1028AA00746865206D6F746F72222000746F2073D4
:1028BA00746172742064697370656E73696E6720DF
:1028CA0074686520626F7474656C732077697468C4
:1028DA0020746865206A756963652E004C696D69A4
:1028EA00746564206472696E6B20696E2074686511
:1028FA002074616E6B2E2E2E2E0054686520617630
:10290A0061696C61626C6520766F6C756D652069B2
:10291A006E207468652074616E6B2063616E206F2F
:10292A006E6C792066696C6C3A2000206D6C7300BD
:10293A00616E642077696C6C2062652064697370CB
:10294A00656E73656400746F2073746172742064B9
:10295A00697370656E73696E672074686520626F4B
:10296A0074746C6573207769746820746865206A6A
:10297A00756963652E0043484F4F534520414E20E9
:10298A004F5054494F4E0020312E205374617274B7
:10299A002066726F6D2070726576696F7573207329
:1029AA00657474696E67733F0020322E2053746118
:1029BA0072742061667265736828707265706172DC
:1029CA0065206E6577206A75696365293F004368EB
:1029DA006F6F736520616E206F7074696F6E202847
:1029EA0031206F722032293E3E200054686572659C
:1029FA00206172653A2000206C74727320696E201F
:102A0A007468652074616E6B004F4F707320616C3F
:102A1A006C20626F74746C657320776572652066CA
:102A2A00696C6C65642E2E00456E74657220626F47
:102A3A0074746C657320746F2062652066696C6CAF
:102A4A0065642E00436F6E74696E75696E672066E1
:102A5A00726F6D2070726576696F75732073657415
:102A6A0074696E6773212121005072657373207433
:102A7A006865207374617274206D6F746F7220625E
:102A8A007574746F6E20696620697473206E6F7432
:102A9A00206F6E2E0054686572652773206E6F2052
:102AAA006A7569636520696E207468652074616E51
:102ABA006B004D6978206672657368206A75696370
:102ACA00652E00556E6B6E6F776E20656E74727927
:102ADA0021212063686F6F73652065697468657268
:102AEA002031206F7220322E00596F752068616480
:102AFA0020636F6E6669676572656420626F7474BD
:102B0A00656C20636170616369747920746F3A201F
:102B1A00004348414E47452054484520424F5454AB
:102B2A004C4520434150414349545920544F204673
:102B3A00494C4C205749544820544845204452494E
:102B4A004E4B0043686F6F73652061206E65772076
:102B5A00626F74746C652063617061636974793E35
:102B6A003E2000426F74746C652063617061636912
:102B7A007479206973206368616E67656420746F75
:102B8A0020353030206D6C00426F74746C652063A0
:102B9A0061706163697479206973206368616E6723
:102BAA00656420746F20333030206D6C0054686582
:102BBA0020706C616E742068617320776F726B6528
:102BCA006420666F723A2020003A002028483A4D65
:102BDA003A53290054686520706C616E74206861EC
:102BEA00732072657374656420666F723A202000E0
:102BFA00544845204C454654204652554954532082
:102C0A00494E2053544F52452E00546865206C6536
:102C1A006674206D616E676F6573206172653A2014
:102C2A002000546865206C656674206F72616E6757
:102C3A006573206172653A202000546865206C65CE
:102C4A006674206170706C6573206172653A202029
:102C5A0000546865206C65667420677561766173D7
:102C6A00206172653A202000546865206C6566749C
:102C7A002070696E656170706C6573206172653A67
:102C8A0020005468652073746F72616765207461EF
:102C9A006E6B206861733A202000206C7472732076
:102CAA006F66206A756963650054686520706C6197
:102CBA006E74206861732066696C6C65643A2020C2
:102CCA000020626F6F74746C65732E002A2A2A2A98
:102CDA002A2A2A2A2A2A2A2A2A2A2A4F50455241A5
:102CEA0054494F4E204D454E552A2A2A2A2A2A2A25
:102CFA002A2A2A2A2A2A2A2A2A2A2A0020312E205D
:102D0A0053686F7720616D6F756E74206F662066E9
:102D1A0072756974206C65667420696E2073746FAD
:102D2A0072652E0020322E2053686F7720626F74EE
:102D3A00746C65732066696C6C6564207769746865
:102D4A0020746865206472696E6B20736F206661F7
:102D5A00722E0020332E2053686F77206C697465B9
:102D6A007273206F66206472696E6B20696E2073BD
:102D7A00746F726167652074616E6B2E0020342E49
:102D8A00204368616E676520626F74746C652063A6
:102D9A00617061636974792E0020352E2053686F43
:102DAA00772074696D652074686520706C616E7433
:102DBA002068617320776F726B65642E0020362E4F
:102DCA002053686F772074696D6520746865207078
:102DDA006C616E7420686173207265737465642E09
:102DEA000043686F6F736520616E206F7074696F3E
:102DFA006E2831202D2036293A3E3E2000556E6B32
:102E0A006E6F776E20656E747279212000496E6943
:102E1A007469616C697A696E67204D61636B2062BF
:102E2A0065766572616765732E2E2E2E0023232325
:102E3A002323232323232323232323204D41434BCB
:102E4A0020424556455241474553202323232323F5
:0A2E5A002323232323232323000056
:00000001FF
